:020000040800F2
:10000000FCFF0020611A0000591A0000591A000074
:10001000591A0000591A0000591A0000591A000014
:10002000591A0000591A0000591A0000591A000004
:10003000591A0000591A0000591A0000591A0000F4
:10004000591A0000591A0000591A0000591A0000E4
:10005000591A0000591A0000591A0000591A0000D4
:10006000591A0000591A0000591A0000591A0000C4
:10007000591A0000591A0000591A0000591A0000B4
:10008000591A0000591A0000591A0000591A0000A4
:10009000591A0000591A0000591A0000591A000094
:1000A000591A0000591A0000591A0000591A000084
:1000B000591A0000591A0000591A0000591A000074
:1000C000591A0000591A0000591A0000591A000064
:1000D000591A0000591A0000591A0000591A000054
:1000E000591A0000591A0000591A0000591A000044
:1000F000591A0000591A0000591A0000591A000034
:10010000591A0000591A0000591A0000591A000023
:10011000591A0000591A0000591A0000591A000013
:10012000591A0000591A0000591A0000591A000003
:10013000591A0000591A0000591A0000591A0000F3
:10014000591A0000591A0000591A0000591A0000E3
:1001500001480068704700BF3400002081B0194991
:1001600000EA0101084600220EE0042022E00820F7
:1001700020E010201EE020201CE040201AE080201B
:1001800018E040F2001015E00F498842EDD00F4909
:100190008842ECD00E498842EBD00E498842EAD022
:1001A0000D498842E9D00D498842E8D00C4988427F
:1001B000E7D010460B49096841EA000209490A6084
:1001C00001B0704700FCFFFF00080140000C014037
:1001D000001001400014014000180140001C0140C3
:1001E000002001401810024083B0CDF800E000F07C
:1001F000FF031A09104603F00F02134614E0194AD0
:1002000002921FE0184A02921CE0184A029219E07A
:10021000174A029216E0174A029213E0164A029217
:1002200010E0164A02920DE00028E8D00128E9D03B
:100230000228EAD00328EBD00428ECD00528EDD022
:100240000628EED0012212B29A40ADF8042002989E
:100250000A46BDF8041000F021F9DDF800E003B013
:10026000704700BF00080140000C01400010014031
:100270000014014000180140001C01400020014012
:1002800082B0CDF800E0034619460191FFF760FF08
:1002900040F2E83100FB01F201990A601F49097838
:1002A000C1F30311C8B21E4909180878C0B21A1D5B
:1002B0001968C140116019490988C1F3022188B247
:1002C000174909180878C0B203F20802191D096815
:1002D000C140116011490988C1F3C22188B2104997
:1002E00009180878C0B203F20C02191D0968C14050
:1002F00011600A490988C1F3813188B20949091896
:100300000978C8B203F2100203F20C010968B1FBCC
:10031000F0F11160DDF800E002B070470410024017
:10032000031E00003419000081B000230360CB00DD
:100330009BB242EA030304689BB244EA03030360EE
:10034000051D13141C462B6864F382032B6000F216
:100350001C0500242B6864F3CB232B600124036865
:1003600064F38613036001B07047FFFF81B0ADF8FE
:1003700000100146BDF800000B68C3F3C01202B9BB
:10038000FAE70A1D106001B07047FFFF81B0CDF899
:1003900000E0012252B23E490A6000F268010B6897
:1003A0006FF0006103EA0102144603F00061C90E18
:1003B0000B4602F00041B1F1004F02D135490A6805
:1003C00001E035490A6804F47021090C0E464FF625
:1003D000FF7104EA01010D4604F44011B1F5401F1C
:1003E0000DD16FF0706102EA01010E462A490A68D8
:1003F0006FF070610A4028490A60324616E004F442
:100400008011B1F5801F09D14FF00301B140C943FC
:1004100002EA010141F070610A4607E0610D09013D
:1004200005FA01F1C9430A4042F070622BB1610D37
:10043000090105FA01F10A43FFE704F00041B1F1B7
:10044000004F02D113490A6001E013490A6040F2EB
:10045000000A81464FEA8A0109EB01010968B1F1FE
:10046000FF3F10D009F134014FEA8A03C918096827
:100470000A4609EB0301096808461146FFF7B4FE76
:100480000AF1010AE6E7DDF800E001B0704700BFBD
:10049000000342421C0001400400014081B0CDF83D
:1004A00000E08CB21546774B00EA03031E4618465F
:1004B000FFF754FEB4F1FF0F0CD1734B9D4203D1F3
:1004C0004FF033333360D9E0422D03D14FF0443342
:1004D0003360D3E04FF6FF739C4214D16A4B9D42C8
:1004E00007D14FF033333360341D4FF03333236083
:1004F000C4E0422D07D14FF044333360341D4FF038
:1005000044332360BAE00021002005F001030BB161
:1005100000211DE005F0020333B105F4C0730BB1F7
:10052000082100E0042113E005F0040333B105F0D5
:1005300020030BB1042100E0002109E005F00803CD
:1005400033B105F020030BB10C2100E00821FFE7D7
:100550004E4B05EA03030BB1032009E005F40073D9
:100560000BB1022004E005F480630BB10120FFE72A
:1005700005F00C030BB10143FFE704F0FF039BB24E
:10058000002B3BD0376800201FFA84F832462E46F5
:1005900008282CD24FF0010303FA00F408EA040300
:1005A000A34222D185004FF00F03AB40DB4307EAA3
:1005B000030401FA05F344EA03031D4606F48173BC
:1005C000B3F5817F05D102F214044FF0010383409B
:1005D000236006F08203822B05D102F210044FF053
:1005E0000103834023602F46FFE7401CD0E71760DC
:1005F0001FFA88F00F463146164602E00F4629469C
:10060000A0B2B0F1FF0F39D9331DD3F8008000221A
:10061000082A30D202F208044FF0010303FA04F46E
:1006200000EA0403A34224D195004FF00F03AB402E
:10063000DB4308EA030807FA05F348EA030801F474
:100640008173B3F5817F07D106F2140502F2080425
:100650004FF00103A3402B6001F08203822B07D1EE
:1006600006F2100502F208044FF00103A3402B60CC
:10067000FFE7521CCCE7331DC3F80080DDF800E033
:1006800001B0704700FCFFFF1400080000080800DC
:1006900081B000F20C02116000F208021368C3F38B
:1006A000000202B9F8E700F20C02126890B201B041
:1006B0007047FFFF89B0CDF800E0834698B28C46C2
:1006C000BDF824100A9E04ACADF80410ADF8080083
:1006D0002046FFF7D5FDBDF80800BDF80410644CB6
:1006E000A34512D101256DB2624C2560624D634C69
:1006F0002560634D634C2560634D644C2560644DFB
:10070000644C2560079C039456E0634CA34512D1CA
:1007100001256DB2614C2560614D584C2560614DDD
:10072000584C2560604D594C2560604D594C2560F2
:10073000069C039440E05E4CA34512D101256DB2A6
:100740005C4C25605C4D4D4C25605C4D4D4C2560EE
:100750005B4D4E4C25605B4D4E4C2560069C0394D2
:100760002AE0594CA34512D101256DB2574C2560A2
:10077000574D424C2560574D424C2560564D434CD9
:100780002560564D434C2560069C039414E0544C60
:10079000A34511D101256DB2524C2560524D374C05
:1007A0002560524D374C2560514D384C2560514DD8
:1007B000384C2560069C0394ADF80410ADF8080091
:1007C0003046FFF7E3FDBDF80800BDF804100BF15B
:1007D000100500242C600BF110052C680C432C60D4
:1007E0000BF10C0500242C6018B140F4806080B23D
:1007F000FFE70BF10C052C6804432C600BF10C0691
:100800000125346865F34D3434600BF10C06012585
:10081000346865F3C30434600BF10C0601253468B9
:1008200065F3820434600BF1140500242C60039DF1
:10083000192465434FEA8C04B5FBF4F76424B7FB35
:10084000F4F42601350964246C433C1B240104F2B2
:1008500032056424B5FBF4F404F00F0446EA040402
:100860000BF10805A4B22C60DDF800E009B0704778
:100870000038014038034242FD09000040000020DA
:10088000FFFFFFFF44000020FFFFFFFF48000020A4
:10089000FFFFFFFF4C00002000440040C403424221
:1008A000B9090000FFFFFFFFFFFFFFFFFFFFFFFF92
:1008B00000480040C803424249090000FFFFFFFF13
:1008C000FFFFFFFFFFFFFFFF004C0040CC03424251
:1008D000190A0000FFFFFFFFFFFFFFFFFFFFFFFF01
:1008E00000500040D0034242110B0000FFFFFFFF09
:1008F000FFFFFFFFFFFFFFFF81B0CDF800E0019D8C
:100900002C4610B408B493B28AB201460348FFF7EC
:10091000D1FE02B0DDF800E001B0704700440040B5
:1009200081B0CDF800E0019D2C4610B408B493B21C
:100930008AB201460348FFF7BDFE02B0DDF800E0D1
:1009400001B070470048004081B0CDF800E081B2AE
:100950000348FFF70BFDDDF800E001B0704700BF72
:100960000048004081B0CDF800E081B20348FFF7B5
:100970008FFEDDF800E001B0704700BF003C004092
:1009800081B0CDF800E081B20348FFF781FEDDF8C9
:1009900000E001B0704700BF0038004081B0CDF8E2
:1009A00000E081B20348FFF773FEDDF800E001B01C
:1009B000704700BF0030014081B0CDF800E081B247
:1009C0000348FFF7D3FCDDF800E001B0704700BF3B
:1009D0000044004081B0CDF800E0019D2C4610B4E9
:1009E00008B493B28AB201460348FFF763FE02B02F
:1009F000DDF800E001B070470038014081B0CDF86B
:100A000000E081B20348FFF7B1FCDDF800E001B07F
:100A1000704700BF0038014081B0CDF800E081B2DE
:100A20000348FFF7A3FCDDF800E001B0704700BF0A
:100A3000004C004081B0CDF800E081B20348FFF7E0
:100A400027FEDDF800E001B0704700BF003800402D
:100A500081B0CDF800E081B20348FFF719FEDDF860
:100A600000E001B0704700BF0030014081B0CDF818
:100A700000E081B20348FFF70BFEDDF800E001B0B3
:100A8000704700BF003C004081B0CDF800E04FF05F
:100A9000420289B2FFF702FDDDF800E001B07047C5
:100AA00081B0CDF800E0044A89B2FFF7F7FCDDF829
:100AB00000E001B0704700BF1400080083B0CDF81B
:100AC00000E08DF8040002910B4C0C4B1C600C4CA8
:100AD0000C4B1C60012464B20B4B1C601046FFF7EA
:100AE00055FC029A9DF804100848FFF71DFCDDF83C
:100AF00000E003B0704700BF6D0A0000380000201E
:100B0000650900003C000020BC034242003C00405C
:100B100081B0CDF800E081B20348FFF727FCDDF893
:100B200000E001B0704700BF00500040014908607C
:100B3000704700BF9881224201490860704700BF9A
:100B40009481224201490860704700BF9C81214284
:100B500001490860704700BF98812142014908603F
:100B6000704700BFB001224201490860704700BFD2
:100B7000B081224201490860704700BFAC012242A7
:100B800001490860704700BFB081224201490860F6
:100B9000704700BFA8012242026803490A60011D94
:100BA0000A6802490A6070475C0000205800002073
:100BB00081B010B5904208BF2AE040EA02044FEA33
:100BC0004404002C08BF23E0440004D1944201D423
:100BD000A41C012C1CE04FEA40044FEA1464FF2CD3
:100BE0000AD14FEA42044FEA1464FF2C04D14FEAC1
:100BF000D274B4EBD0340BE0002A06D4002802DC17
:100C00000024012C04E0904202E0002848BF824208
:100C1000BDE8104001B0704781B00A4681B20020A3
:100C20008DB21146052805D20B1820221A70401CDF
:100C3000C0B2F7E70B1800221A70401EC0B20C18A1
:100C40000A23B5FBF3F203FB125292B23032227048
:100C50000A22B5FBF2F292B295B202B902E0401E4E
:100C6000C0B2ECE701B0704783B0CDF800E0ADF85A
:100C700008100190BDF80830BDF80820521EADF8EC
:100C800008204BB10020064C2468A047019A107040
:100C9000019A521C0192EDE7DDF800E003B07047C5
:100CA0005800002081B00091014600980B461C4678
:100CB0005A1C15460346421C10461A7822702278A8
:100CC0000AB12B46F3E7084601B0704781B0FAB588
:100CD00090EA02064CBF4FF000464FF000060102BA
:100CE00043001B0E12BF41F000414FF000003BE0FB
:100CF000FF2B35D05FEA02245FEA42055FEA156503
:100D000011BF44F000444FF0FF4030432CE0FF2D72
:100D100026D05B1B0020202764084908A14240EB35
:100D2000000028BF091B7F1E04D0002918BF4900FE
:100D3000F4D1B84010F0004F04BF4000B3F10103FC
:100D400080302CBF5B1C40007F33DCBF4FF00000C5
:100D50000AE0FF2B04D2400A40EAC350304303E0CC
:100D6000FF27FF0556EA0700BDE8FA4001B07047CB
:100D700081B0CDF800E00178CCB2A0B2034C246879
:100D8000A0470020DDF800E001B0704730000020EF
:100D900000F230010A6806490A6000F208010A6898
:100DA00004490A60011D0A6803490A60704700BFD0
:100DB00060000020500000205400002081B0002876
:100DC00008BF0FE002B54FF09E0202D4521E400051
:100DD000FCD580302CBF521C4000400A40EAC25073
:100DE000BDE8024001B0704781B0FAB590EA020652
:100DF0004CBF4FF000464FF000064FEA00214FEA8B
:100E000040031B0E12BF41F000414FF000002CE0E8
:100E1000FF2B26D04FEA02244FEA42052D0E12BFC7
:100E200044F000444FF000001FE0FF2D19D05B1983
:100E3000A1FB0454002C5CBF64005B1E803424BF03
:100E40005B1C64087E3BDCBF4FF000000DE0FF2B15
:100E500007D24FEA142030F4000040EAC350304378
:100E600003E0FF27FF0546EA0700BDE8FA4001B0AE
:100E70007047FFFF01490860704700BF90012142A1
:100E800081B0CDF800E0094902B440F2000340F21D
:100E9000000240F20001FFF72FFD01B0044A0549AE
:100EA0000A600020DDF800E001B07047301C00004F
:100EB000B90900003000002081B0CDF800E00949F8
:100EC00002B440F2000340F2000240F20001FFF7DA
:100ED00081FD01B0044A05490A600020DDF800E008
:100EE00001B070479C1C0000FD090000300000208C
:100EF00001490860704700BFA8012242014908600B
:100F0000704700BFB481224201490860704700BFAA
:100F10008801224281B0CDF800E0011D0A68016815
:100F2000C8B21146034AFFF7C9FD0020DDF800E012
:100F300001B07047081D000081B0CDF800E0A9E0C5
:100F4000012905D140F220016548FFF79DFD04E02D
:100F500040F220016248FFF7A3FDBBE0012905D163
:100F600040F208015F48FFF78FFD04E040F20801FE
:100F70005C48FFF795FDADE0012905D144F2000181
:100F80005948FFF781FD04E044F200015648FFF79D
:100F900087FD9FE0012905D140F200415148FFF74C
:100FA00073FD04E040F200414E48FFF779FD91E007
:100FB000012905D140F600014A48FFF765FD04E02C
:100FC00040F600014748FFF76BFD83E0012905D19A
:100FD00041F200014348FFF757FD04E041F20001F0
:100FE0004048FFF75DFD75E0012905D141F20001A0
:100FF0003D48FFF749FD04E041F200013A48FFF7A0
:101000004FFD67E0012905D140F600013648FFF7A2
:101010003BFD04E040F600013348FFF741FD59E095
:10102000012905D140F240012F48FFF72DFD04E0D2
:1010300040F240012C48FFF733FD4BE0012905D178
:1010400040F220012848FFF71FFD04E040F2200194
:101050002548FFF725FD3DE0012905D140F240017B
:101060002248FFF711FD04E040F240011F48FFF75E
:1010700017FD2FE0012905D140F280011B48FFF741
:1010800003FD04E040F280011848FFF709FD21E06C
:10109000012020E000283FF453AF01283FF45EAF69
:1010A00002283FF469AF03283FF474AF04283FF4EB
:1010B0007FAF05283FF48AAF06283FF495AF072895
:1010C000A0D00828ACD00928B8D00A28C4D00B2852
:1010D000D0D0DDE70020DDF800E001B0704700BFB0
:1010E000000801400010014000140140000C0140C4
:1010F00081B0CDF800E0A9E0012905D140F210014E
:101100006548FFF7C1FC04E040F210016248FFF7B8
:10111000C7FCBBE0012905D140F204015F48FFF79D
:10112000B3FC04E040F204015C48FFF7B9FCADE019
:10113000012905D142F200015948FFF7A5FC04E05E
:1011400042F200015648FFF7ABFC9FE0012905D1B0
:1011500040F200415148FFF797FC04E040F20041A3
:101160004E48FFF79DFC91E0012905D140F60001B2
:101170004A48FFF789FC04E040F600014748FFF7C2
:101180008FFC83E0012905D141F200014348FFF7BC
:101190007BFC04E041F200014048FFF781FC75E070
:1011A000012905D140F201013B48FFF76DFC04E045
:1011B00040F201013848FFF773FC67E0012905D1CF
:1011C00040F200413648FFF75FFC04E040F2004186
:1011D0003348FFF765FC59E0012905D140F20021B1
:1011E0002F48FFF751FC04E040F200212C48FFF7A4
:1011F00057FC4BE0012905D140F200112848FFF7C8
:1012000043FC04E040F200112548FFF749FC3DE0B3
:10121000012905D140F240012248FFF735FC04E0E6
:1012200040F240011F48FFF73BFC2FE0012905D1A8
:1012300040F280011B48FFF727FC04E040F28001E8
:101240001848FFF72DFC21E0012020E000283FF4A2
:1012500053AF01283FF45EAF02283FF469AF032883
:101260003FF474AF04283FF47FAF05283FF48AAF02
:1012700006283FF495AF0728A0D00828ACD009284D
:10128000B8D00A28C4D00B28D0D0DDE70020DDF884
:1012900000E001B0704700BF0008014000100140AD
:1012A00000140140000C014081B0CDF800E0094974
:1012B00002B440F2000340F2000240F20001FFF7E6
:1012C0001BFB01B0044A05490A600020DDF800E07C
:1012D00001B07047301C0000B90900003000002048
:1012E00081B0CDF800E0094902B440F2000340F2B9
:1012F000000240F20001FFF713FB01B0044A054968
:101300000A600020DDF800E001B07047C41B000057
:10131000490900003000002081B0CDF800E0011D37
:101320000A680168C8B21146034AFFF7C7FB0020EC
:10133000DDF800E001B07047081D000001490860B9
:10134000704700BFA081224201490860704700BF7A
:101350009881214201490860704700BFA88122425C
:1013600001490860704700BFA4812242014908601A
:10137000704700BF8C01224201490860704700BFDE
:10138000B881224201490860704700BF9C81214218
:1013900001490860704700BF94012142014908607B
:1013A000704700BFB001224201490860704700BF8A
:1013B000AC01224201490860704700BF8001214210
:1013C00044F67F77C0F212077F1EFDD100BF00BF39
:1013D00000BF00BF00BF704783B0CDF800E00246F9
:1013E00010460D228DF808200A228DF809201FE0F2
:1013F000FFF7BEFC23E002782AB10190FFF7B8FCAA
:101400000198401CF7E71AE002782AB10190FFF733
:10141000AFFC0198401CF7E702AA1046FFF7A8FCB2
:101420000DF109021046FFF7A3FC08E0062007E0D3
:101430000029DDD00129DED00229E5D0F6E7002021
:10144000DDF800E003B0704782B0CDF800E0002284
:1014500000210A290ED2ADF804208DF8061000F004
:10146000C7F99DF80610BDF80420121892B2491C65
:10147000C9B2EEE70A20B2FBF0F189B28AB240F2BB
:101480004C4081420DD9B2F5805F0AD290B2FFF78D
:1014900095FC064AFFF7A8FC4FF08B42FFF716FCBD
:1014A00000E00348DDF800E002B0704700404E4520
:1014B000000080BF82B0CDF800E002460C4600205C
:1014C000002149B20192019AB2F1FF3F06D1714A5F
:1014D00011462046FFF7E6FB0320D7E0012501AACD
:1014E000D21C127802F08002D2B272B101AAD31CCF
:1014F0001A7882F080021A706A1CD3B22D222270F0
:10150000621C1446DEB2A24601E0A246EEB2019A87
:1015100032B9614A11465046FFF7C4FB0020B5E0DE
:10152000019AB2F1FF4F06D15C4A11465046FFF7CF
:10153000B9FBF0B2AAE05FFA80F94FFA81F8019A9C
:101540004FF07E50FFF734FB40F2000000DD012039
:1015500048B1019A5248FFF747FC0190A8F10108F1
:101560004FFA88F8EBE7019A4D48FFF721FB40F26C
:10157000000000DC012048B1019A4A48FFF734FC22
:10158000019008F101084FFA88F8ECE7019A52003F
:10159000019201AAD21C12787F3AD0B201AAD31CC0
:1015A00001221A70019A8240019201AAD21C12787B
:1015B00030328AF800200AF10100B8F1010F06DB91
:1015C000B8F1060F03DC05465FFA89F103E02E222D
:1015D0000270451C012106204FFA88F400B301AACD
:1015E000D31C00221A70019A9300019AD21801921A
:1015F000019A5200019201AAD21C127830322A704C
:101600006D1C51B9621E52B253B222B92E222A70F9
:101610006D1C0121FFE75CB2FFE7401EC0B2DDE7B1
:10162000294660B24A1E1278302A01D1491EF9E7D4
:101630004A1E12782E2A01D1491EFFE710B36522F7
:101640000A70491C002806DA2D220A70491C424201
:1016500050B243B200E043B2D8B2DAB2092A07D995
:101660000A22B0FBF2F2D2B230320A70491CFFE714
:101670000A23B0FBF3F203FB1202D2B230320A703B
:10168000481C00E00846002202700020DDF800E05F
:1016900002B0704725000020290000202B00002008
:1016A00000002041CDCCCC3D41F6FF27C0F2B7076A
:1016B0007F1EFDD100BF00BF00BF00BF00BF70474D
:1016C00081B0CDF800E05FFA81F95FFA82FA0FE0AD
:1016D0005FFA8AF15FFA89F0FFF70AFD0DE05FFA21
:1016E0008AF15FFA89F0FFF727FC06E0012004E0A9
:1016F0000028EDD00128F2D0F8E7DDF800E001B0D5
:101700007047FFFF81B0CDF800E00E46002183B2A4
:10171000002805DA0121404280B280B28FB201E098
:1017200098B28FB23146FFF777FA06213446B8B245
:10173000002908D963184A1E92B2A21812781A70AA
:10174000491E89B2F4E72022227070B1002081B2D4
:10175000204642181278202A02D1491C89B2F8E7A3
:101760004A1E92B283182D221A70DDF800E001B0F3
:101770007047FFFF81B0CDF800E011E00846FFF7A9
:10178000AFFD16E00846FFF78FFD12E00846FFF7B1
:1017900093FB0EE00846FFF773FB0AE0012008E028
:1017A0000028EBD00128EDD02028EFD03028F1D050
:1017B000F4E7DDF800E001B07047FFFF81B0CDF83D
:1017C00000E003460846FFF7E7F91846FFF7E0FA9E
:1017D0000020054C2468A0470020044C2468A04742
:1017E000DDF800E001B070475000002054000020F8
:1017F00082B0CDF800E000200D4C2468A04701A87D
:101800000221FFF731FA0120094C2468A04701AA00
:10181000107800F01F00C0B2010289B2501C00789D
:1018200041EA000080B24008DDF800E002B07047F5
:101830005000002081B0CDF800E00120034C246866
:10184000A047DDF800E001B0704700BF5400002061
:1018500081B0CDF800E08B4609E05846FFF75AFB0F
:101860000AE05846FFF758FD06E0012004E0002892
:10187000F3D00128F5D0F8E7DDF800E001B07047BB
:1018800081B01548006840F0010113480160134918
:101890001348016010480168124801400E48016079
:1018A0000D4801686FF4802001400B4801600C482E
:1018B00001686FF4FE0001400948016006480168B4
:1018C0006FF0A0500140044801604FF0000106484D
:1018D000016001B0704700BF001002400000FFF03F
:1018E00004100240FFFFF6FE2C10024081B01CF8ED
:1018F000019B0BF8019BBBEB0A0FF8D101B07047BD
:1019000081B0CDF800E008490848FFF757FFFFF71E
:1019100091FFFFF755FD06480221FFF75DFDDDF859
:1019200000E001B0704700BF141E0000741D0000ED
:10193000000000200204060881B0CDF800E001227A
:1019400000210020FFF7BCFE002202210020FFF74B
:10195000B7FE002201210020FFF7B2FE0C4801462D
:101960000020FFF775FF42F280510120FFF702FFD0
:1019700044F67F77C0F212077F1EFDD100BF00BF83
:1019800000BF00BF00BFDDF800E001B0704700BF3E
:101990001C1E000090B0CDF800E0FFF729FFADF865
:1019A0000400FFF751FD029014480121FFF714FDD8
:1019B00003A80146BDF80400FFF7A4FE03A8022116
:1019C000FFF70AFD0E480121FFF706FD03A80146B7
:1019D0000298FFF76FFD03A80121FFF7FDFC0948FE
:1019E0000221FFF7F9FCFFF75FFEFFF75DFEFFF74F
:1019F0005BFEDDF800E010B0704700BF0F00002074
:101A0000180000202100002081B04FF000094FF0A5
:101A1000000CBDEB0A0F04DCBDEB0B0F01DBD44661
:101A2000EA464BF8049BBBEB0A0FFAD1BCEB0A0F5A
:101A300005DDE246D9F800B00BF1040BF1E701B087
:101A40007047FFFF81B002490248016001B0704752
:101A5000401901003400002081B0FEE701B070475A
:101A600000F00EF800F01EFAFFF7ECFF00F0DAF9D4
:101A7000FFF762FFFFF744FFFFF78CFFFCE7FEE78D
:101A800081B0CDF800E0464A464B474C47494BF6FB
:101A90008030814206D94648006840F0020144483F
:101AA000016011E045F6C050814206D94048006807
:101AB00040F001013E48016006E03D4801686FF0DA
:101AC000070001403A480160FFF7DAFE3948036039
:101AD00039480460394802EA00013948016002F0DF
:101AE000010040B119463648006800F002000028A5
:101AF00000D1F8E700E0194602F4803040B10B460F
:101B00002F48006800F40030002800D1F8E700E01A
:101B10000B4602F0805068B12948006840F08051BF
:101B2000274801602648006800F00050002800D1D6
:101B3000F8E7FFE702F0806078B12148006840F0E4
:101B400080611F48016011461A461D48006800F078
:101B50000060002800D1F8E701E011461A4601F0C4
:101B6000807070B11648006840F0807114480160C0
:101B700011461348006800F0007000B9F9E70A4602
:101B8000FFE70C48006800F00C01900000F00C002A
:101B9000814200D0F5E7DDF800E001B0704700BFFA
:101BA0008100010502841D00440601004019010066
:101BB00000200240041002402C100240FFFF0F00E2
:101BC000001002403800000039000000FFFFFFFF56
:101BD0000000000000000000000000000000000005
:101BE00000000000000000000000000000000000F5
:101BF00000000000000000001808000018000000AD
:101C000000000000000000000000000000000000D4
:101C100000000000000000000000000000000000C4
:101C20000000000000000000000000003000140868
:101C30003500000036000000FFFFFFFF000000003D
:101C40000000000000000000000000000000000094
:101C50000000000000000000000000000000000084
:101C6000000000001808000018000000000000003C
:101C70000000000000000000000000000000000064
:101C80000000000000000000000000000000000054
:101C9000000000000000000008000008090000002B
:101CA0000A000000FFFFFFFF00000000000000002E
:101CB0000000000000000000000000000000000024
:101CC0000000000000000000000000000000000014
:101CD00018080000180000000000000000000000CC
:101CE00000000000000000000000000000000000F4
:101CF00000000000000000000000000000000000E4
:101D000000000000040000002A0000002B0000007A
:101D10002C000000FFFFFFFF00000000000000009B
:101D200000000000000000000000000000000000B3
:101D30000000000000000000000000001808000083
:101D40001808000018080000000000000000000053
:101D50000000000000000000000000000000000083
:101D60000000000000000000000000000000000073
:101D700000112008750E0000090F0000FD0E000084
:101D8000F10E0000A91300009D130000B513000020
:101D900055130000611300003D13000049130000BB
:101DA00085130000FFFFFFFFFFFFFFFFFFFFFFFFA7
:101DB000FFFFFFFFFFFFFFFFFFFFFFFFFFFFFFFF33
:101DC000FFFFFFFFFFFFFFFFFFFFFFFFFFFFFFFF23
:101DD000FFFFFFFF496E697469616C697A6174691C
:101DE0006F6E002056616C75653A200020555620B4
:101DF00020203A2000206D56004E614E00300049F0
:101E00004E46000000000001020304010203040624
:101E1000070809FF650900006D0A000007000000BF
:101E20000403000000B5DFF814B0DFF814A0DFF8F9
:101E300014C0FFF75BFD00BD704700BF000000202D
:101E40002F000020D41D0000FFFFFFFFFFFFFFFF5A
:101E5000FFFFFFFFFFFFFFFFFFFFFFFFFFFFFFFF92
:101E6000FFFFFFFFFFFFFFFFFFFFFFFFFFFFFFFF82
:101E7000FFFFFFFFFFFFFFFFFFFFFFFFFFFFFFFF72
:101E8000FFFFFFFFFFFFFFFFFFFFFFFFFFFFFFFF62
:101E9000FFFFFFFFFFFFFFFFFFFFFFFFFFFFFFFF52
:101EA000FFFFFFFF00B5DFF810B0DFF810A0FFF76D
:101EB000ABFD00BD704700BF0000002064000020A3
:00000001FF
