:100000007EEF11F00000000000EF00F000000000A3
:0A0010000000000000000000F3D71C
:10001C0010C16AFF016A0150000A05E1000E68B0C8
:0C002C00010E016EF8D76ACF00F0120040
:1000380010C1C9FF016A0150000A05E1000EC7B0EE
:0C004800010E016EF8D7C9CF00F01200C5
:0E00540001010FB102D08B9401D08B841200F9
:0E00620001010FB102D08B9601D08B861200E7
:0E00700001010FB102D08B9801D08B881200D5
:0E007E0001010FB102D08D9201D08D821200CF
:0E008C0001010FB102D08B9A01D08B8A1200B5
:0E009A0001010FB102D08D9601D08D861200AB
:0E00A80001010FB102D08B9801D08B8812009D
:0E00B600ACB202D00000FCD70FC1ADFF1200AB
:0E00C40001010FB102D0899401D0898412008D
:0E00D20001010FB102D08B9E01D08B8E120067
:0E00E00001010FB102D08D9401D08D84120069
:0E00EE0001010FB102D08B9601D08B8612005B
:0E00FC0001010FB102D0899001D0898012005D
:0E010A0001010FB102D08A9201D08A82120048
:0E01180001010FB102D08B9001D08B8012003C
:0E01260001010FB102D08B9C01D08B8C120016
:100134000FC1C9FF016A0150000A05E1000EC7B0F2
:0C014400010E016EF8D7C9CF01F01200C7
:0E01500001010FB102D08D9001D08D80120000
:0E015E0001010FB102D0899801D089881200EA
:0E016C0001010FB102D08B9601D08B861200DC
:10017A000F0121B302D00000FBD70FC11CFF1200F0
:10018A000FC16AFF016A0150000A05E1000E68B05A
:0C019A00010E016EF8D76ACF01F01200D0
:0E01A60001010FB102D08B9C01D08B8C120096
:0E01B40001010FB102D08B9E01D08B8E120084
:0E01C20001010FB102D08B9801D08B88120082
:0E01D00001010FB102D08B9601D08B86120078
:0E01DE0001010FB102D08B9A01D08B8A120062
:0E01EC0001010FB102D08B9801D08B88120058
:0E01FA0001010FB102D08A9001D08A8012005C
:0E02080001010FB102D08B9201D08B82120047
:0E02160001010FB102D08B9601D08B86120031
:0E022400026A016A006A086A036A000E12008C
:10023200F250026EF29E0500FF6A0150FE6E0050FF
:08024200FD6E02BEF28E1200F7
:0E024A0001010FB102D08B9801D08B881200F9
:100258000B820BAE36EF01F0036802680168006894
:080268000A360232FF0E1200FB
:080270000AAE029E000E12000E
:100278000B840BAE47EF01F0010E036E026A016AB0
:0A028800006A0A360232FF0E12006F
:0E02920001010FB102D08B9601D08B861200B5
:0E02A00001010FB102D08A9401D08A841200AD
:0E02AE0001010FB102D08F9401D08F84120095
:0E02BC0001010FB102D08F9001D08F8012008F
:0E02CA0001010FB102D08B9801D08B88120079
:0E02D80001010FB102D08B9A01D08B8A120067
:0E02E60001010FB102D08F9201D08F82120061
:0E02F40001010FB102D0899201D0898212005F
:100302000CB0C3EF01F00CA269EF02F00E6A000E0E
:100312000264DAEF01F0F00E0214D8A4A5EF01F0A6
:10032200023A01380F0B02260138F00B016E003839
:100332000F0B01260038F00B006E08380F0B002659
:100342000838F00B086E0E84D89002BEBEEF01F0A2
:1003520008360036013602360E2A02BEBEEF01F022
:1003620008360036013602360E2A02BEBEEF01F012
:1003720008360036013602360E2A0E5003645FEF4D
:1003820002F0035E0BBC08AE64EF02F0D880800E70
:1003920008640030000E002201220222D8A064EF7D
:1003A20002F0023201320032034A69EF02F064EFD6
:1003B20002F001C002F000C001F008C000F0086ABB
:1003C200000E0E86026411EF02F0F00E0214D8A4A1
:1003D200F9EF01F0023A01380F0B02260138F00B57
:1003E200016E00380F0B01260038F00B006E0E84F0
:1003F200D89002BEBEEF01F00036013602360E2A58
:1004020002BEBEEF01F00036013602360E2A02BEEF
:10041200BEEF01F00036013602360E2ABEEF01F0C1
:1004220001C002F000C001F0006A000E0E960E88B4
:1004320002643EEF02F0F00E0214D8A429EF02F09B
:10044200023A01380F0B02260138F00B016E0E84BE
:10045200D89002BEBEEF01F0013602360E2A02BE6D
:10046200BEEF01F0013602360E2A02BEBEEF01F0E7
:10047200013602360E2ABEEF01F001C002F0016A17
:10048200000E0E8602646EEF02F0F00E0214D8A483
:100492004DEF02F0023A0E84D89002BEBEEF01F098
:1004A20002360E2A02BEBEEF01F002360E2A02BE4C
:1004B200BEEF01F002360E2ABEEF01F0010E0C6E05
:1004C200DADE71EF02F0020E0C6ED1DE71EF02F095
:1004D200040E0C6EC0DE71EF02F0080E0C6EA1DE8F
:0204E200120006
:1004E400B60E0001F36F000EF46F0F0EF56F010EE0
:1004F400F66FFF0EEF6FFF0EF06F000EF16F000E40
:10050400F26FFF0EDB6FFF0EDC6F000EDD6F000E6F
:10051400DE6FFF0ED76FFF0ED86F000ED96F000E7F
:10052400DA6FAC8A900EAB6E948E949C9EAA03D024
:08053400AECF00F0FBD712006E
:08053C000B6A0B86FF0E120092
:100544007A0E0001F36F010EF46F0F0EF56F010EBA
:10055400F66FFF0EEF6FFF0EF06F000EF16F000EDF
:10056400F26FFF0EDB6FFF0EDC6F000EDD6F000E0F
:10057400DE6FFF0ED76FFF0ED86F000ED96F000E1F
:10058400DA6F0F01218B900E226F98849892A4AA9F
:0A05940003D01DCF00F0FBD71200CA
:10059E0009C10DF10AC10EF10BC100F00CC101F041
:1005AE00010E01010B5F000E0C5B0050011014E0F8
:1005BE00E1C0E1FFE2C0E2FFE66ADFC000F0E0C0AA
:1005CE0001F030DE0DC1E1FF0EC1E2FF00C0E6FF1B
:0A05DE0001010D4B0E2BE0D71200B7
:1005E8000C6A0E6A0250D8A40DEF03F001C002F0A5
:1005F80000C001F0006A0E860250D8A40DEF03F087
:1006080001C002F0016A0E960E880250D8B41FEF9E
:1006180003F00E50035ED8A4D8A024EF03F0D890BE
:1006280002BE29EF03F0003601360236032E14EF1E
:1006380003F024EF03F0010E0C6EF0DD2CEF03F055
:10064800020E0C6E15DE2CEF03F0040E0C6E0CDEA1
:0206580012008E
:10065A00380E0001956F000E966F100E976F010EFF
:10066A00986F340E996F010E9A6F0F0E9B6F010EE1
:10067A009C6F949A01010951040A02E1948601D0FF
:10068A0094969488C66AC79CC79E0951C6120B5194
:10069A00C6120A51C7120B5305E00C51000AD8B40E
:0E06AA00C78C03D00C53D8A4C78CC68A12008C
:1006B80021D0CF0EAF6EAC9411DF6BD0670EAF6E4A
:1006C800AC940CDF66D0CF0EAF6EAC8407DF61D080
:1006D800670EAF6EAC8402DF5CD0440EAF6EAC84A4
:1006E800FDDE57D0220EAF6EAC84F8DE52D0060E77
:1006F800006E59D0000E006E0101081908E1005083
:10070800071905E1120E061902E10551C00AD1E0E8
:10071800000E006E081908E10050071905E1250EC2
:10072800061902E10551800AC9E0000E006E081999
:1007380008E10050071905E14B0E061902E10551C1
:10074800000AC1E0000E006E081908E10050071900
:1007580005E1960E061902E10551000AB9E0000EFE
:10076800006E081908E10050071905E1E10E0619A5
:1007780002E10551000AB1E00851000A08E10751F9
:10078800010A05E10651C20A02E10551000AAAE080
:10079800AED7B60E00019D6F000E9E6F0F0E9F6FB5
:0807A800010EA06F006A1200AF
:1007B00005C1F6FF06C1F7FF07C1F8FF0900F5CF35
:1007C000E3F00900F5CFE4F00900F5CFE5F009000A
:1007D000F5CFE6F0040E01010525F66E000E0621A8
:1007E000F76E000E0721F86E0900F5CFDFF0090063
:1007F000F5CFE0F00900F5CFE1F00900F5CFE2F028
:020800001200E4
:1008020021D0CF0EAF6EAC946CDE6BD0670EAF6EA4
:10081200AC9467DE66D0CF0EAF6EAC8462DE61D080
:10082200670EAF6EAC845DDE5CD0440EAF6EAC84FE
:1008320058DE57D0220EAF6EAC8453DE52D0060E75
:10084200006E59D0000E006E0101081908E1005037
:10085200071905E1120E061902E10551C00AD1E09D
:10086200000E006E081908E10050071905E1250E77
:10087200061902E10551800AC9E0000E006E08194E
:1008820008E10050071905E14B0E061902E1055176
:10089200000AC1E0000E006E081908E100500719B5
:1008A20005E1960E061902E10551000AB9E0000EB3
:1008B200006E081908E10050071905E1E10E06195A
:1008C20002E10551000AB1E00851000A08E10751AE
:1008D200010A05E10651C20A02E10551000AAAE035
:1008E200AED7B60E00019D6F000E9E6F0F0E9F6F6A
:0808F200010EA06F006A120064
:1008FA0038D00F0120870D0E1F6F040E1E6F218541
:10090A001CDE7ED00F012087060E1F6F820E1E6F1F
:10091A00218513DE75D00F012087030E1F6F400E4D
:10092A001E6F21850ADE6CD00F012087010E1F6F12
:10093A00A00E1E6F218501DE63D00F012087010EF4
:10094A001F6F150E1E6F2185F8DD5AD00F01208703
:10095A001F6B8A0E1E6F2185F0DD52D0060E006EC7
:10096A0059D0000E006E0101081908E1005007195C
:10097A0005E1120E061902E10551C00ABAE0000E9D
:10098A00006E081908E10050071905E1250E06193D
:10099A0002E10551800AB6E0000E006E081908E16E
:1009AA000050071905E14B0E061902E10551000A2C
:1009BA00B2E0000E006E081908E10050071905E1BF
:1009CA00960E061902E10551000AAEE0000E006E0D
:1009DA00081908E10050071905E1E10E061902E1BC
:1009EA000551000AAAE00851000A08E10751010A64
:1009FA0005E10651C20A02E10551000AA7E0AED795
:100A0A007A0E00019D6F010E9E6F0F0E9F6F010EF1
:060A1A00A06F006A12004B
:100A2000300E01010525F66E000E0621F76E000E50
:100A30000721F86E0900F5CFD3F00900F5CFD4F007
:100A40000900F5CFD5F00900F5CFD6F0080E052541
:100A5000F66E000E0621F76E000E0721F86E0900F3
:100A6000F5CFEBF00900F5CFECF00900F5CFEDF094
:100A70000900F5CFEEF0040E0525F66E000E0621F6
:100A8000F76E000E0721F86E0900F5CFE7F00900B8
:100A9000F5CFE8F00900F5CFE9F00900F5CFEAF06D
:020AA000120042
:100AA2005DD0010106B102D0929401D092840F016F
:100AB20025957AD0010106B102D0969601D096868C
:100AC20073D0010106B102D0969401D096846CD005
:100AD200010106B102D0949601D0948665D001013D
:100AE20006B102D0949801D094885ED0010106B17B
:100AF20002D0949A01D0948A57D0010106B102D053
:100B0200989001D0988050D0010106B102D0939400
:100B120001D0938449D0010106B102D0989401D04A
:100B220098840F01239540D0010106B102D098921A
:100B320001D098820F01239337D0010106B102D070
:100B4200949601D0948630D0010106B102D09498D7
:100B520001D0948829D0010E006E28D001010551E0
:100B6200000A9FE00551010AA5E00551020AA9E029
:100B72000551030AADE00551040AB1E00551050A29
:100B8200B5E00551060AB9E00551070ABDE0055175
:100B9200080AC1E00551090AC7E005510A0ACDE079
:0E0BA20005510B0AD1E0D7D7000E006E1200ED
:100BB00059D0010106B102D0929201D092820F0168
:100BC000259376D0010106B102D0929801D0928887
:100BD0006FD0010106B102D0969201D0968268D002
:100BE000010106B102D0949601D0948661D0010132
:100BF00006B102D0949801D094885AD0010106B170
:100C000002D0949A01D0948A53D0010106B102D047
:100C1000949401D094844CD0010106B102D09392F7
:100C200001D0938245D0010106B102D0949E01D03B
:100C3000948E3ED0010106B102D0949C01D0948CD8
:100C400037D0010106B102D0949601D0948630D0FD
:100C5000010106B102D0949801D0948829D0010EE8
:100C6000006E28D001010551000AA3E00551010AD8
:100C7000A9E00551020AADE00551030AB1E00551B2
:100C8000040AB5E00551050AB9E00551060ABDE0C0
:100C90000551070AC1E00551080AC5E00551090AD6
:100CA000C9E005510A0ACDE005510B0AD1E0D7D7BA
:060CB000000E006E1200B0
:100CB60059D0010106B102D0929001D092800F0165
:100CC600259176D0010106B102D0949001D094808E
:100CD6006FD0010106B102D0969001D0968068D0FF
:100CE600010106B102D0949601D0948661D001012B
:100CF60006B102D0949801D094885AD0010106B169
:100D060002D0949A01D0948A53D0010106B102D040
:100D1600949201D094824CD0010106B102D09390F6
:100D260001D0938045D0010106B102D0949E01D036
:100D3600948E3ED0010106B102D0949C01D0948CD1
:100D460037D0010106B102D0949601D0948630D0F6
:100D5600010106B102D0949801D0948829D0010EE1
:100D6600006E28D001010551000AA3E00551010AD1
:100D7600A9E00551020AADE00551030AB1E00551AB
:100D8600040AB5E00551050AB9E00551060ABDE0B9
:100D96000551070AC1E00551080AC5E00551090ACF
:100DA600C9E005510A0ACDE005510B0AD1E0D7D7B3
:060DB600000E006E1200A9
:100DBC0005C1F6FF06C1F7FF07C1F8FF0900F5CF23
:100DCC0009F1040E01010525F66E000E0621F76EE1
:100DDC00000E0721F86E0900F5CF0AF1080E052563
:100DEC00F66E000E0621F76E000E0721F86E090054
:100DFC00F5CF0BF10C0E0525F66E000E0621F76EE5
:100E0C00000E0721F86E0900F5CF0CF120DC000E66
:040E1C00006E120052
:100E200027D0CF0EAF6EAC9472EC02F070D0670E8C
:100E3000AF6EAC9472EC02F06AD0CF0EAF6EAC84A1
:100E400072EC02F064D0670EAF6EAC8472EC02F00C
:100E50005ED0440EAF6EAC8472EC02F058D0220E1D
:100E6000AF6EAC8472EC02F052D0060E006E59D018
:100E7000000E006E0101081908E10050071905E194
:100E8000120E061902E10551C00ACBE0000E006EF9
:100E9000081908E10050071905E1250E061902E1BD
:100EA0000551800AC4E0000E006E081908E10050E8
:100EB000071905E14B0E061902E10551000ABDE0D4
:100EC000000E006E081908E10050071905E1960EA2
:100ED000061902E10551000AB6E0000E006E08197D
:100EE00008E10050071905E1E10E061902E105517C
:100EF000000AAFE00851000A08E10751010A05E1C4
:100F00000651C20A02E10551000AA9E0AED7B60EA9
:100F100000019D6F000E9E6F0F0E9F6F010EA06F60
:040F2000006A120051
:100F240005C1F6FF06C1F7FF07C1F8FF0900F5CFB9
:100F340009F1040E01010525F66E000E0621F76E77
:100F4400000E0721F86E0900F5CF0AF1080E0525F9
:100F5400F66E000E0621F76E000E0721F86E0900EA
:100F6400F5CF0BF10C0E0525F66E000E0621F76E7B
:100F7400000E0721F86E0900F5CF0CF12DEC03F0FB
:060F8400000E006E1200D9
:100F8A0005C1F6FF06C1F7FF07C1F8FF0900F5CF53
:100F9A0009F1040E01010525F66E000E0621F76E11
:100FAA00000E0721F86E0900F5CF0AF1080E052593
:100FBA00F66E000E0621F76E000E0721F86E090084
:100FCA00F5CF0BF10C0E0525F66E000E0621F76E15
:100FDA00000E0721F86E0900F5CF0CF12DEC03F095
:060FEA00000E006E120073
:100FF00005C104F006C105F004C002F005C003F00D
:10100000044A052A07C100F008C101F00101074B9D
:10101000082B00C0E9FF01C0EAFF02C0E1FF03C0E6
:10102000E2FFEECFE6FF02C0E9FF03C0EAFFEE52A7
:0E10300001E0E2D705C100F006C101F0120098
:10103E000A6A0350D8A40A800750D8A40A820A501C
:10104E00D8B482EF08F0030AD8B43BEF08F00AB028
:10105E0036EF08F006AE80EF08F07EEF08F002AE35
:10106E007EEF08F080EF08F00250800B0A6E029EB1
:10107E000650800B069E0A18D8B44CEF08F00A50A2
:10108E00D8B47EEF08F080EF08F00750035CD8B4B8
:10109E0056EF08F0D8A072EF08F078EF08F006507F
:1010AE00025CD8B460EF08F0D8A072EF08F078EFC9
:1010BE0008F00550015CD8B46AEF08F0D8A072EFC2
:1010CE0008F078EF08F00450005CD8B482EF08F016
:1010DE00D8B078EF08F00A52D8B480EF08F07EEF5F
:1010EE0008F00A52D8B47EEF08F080EF08F0D880EE
:0E10FE001200D8901200D880D8841200120080
:10110C000D6A086A0050D8B4000C04180A6E0ABEA6
:10111C000D1E0B6A04AE02D0041E042A00AE02D0CF
:10112C00001E002A005004100A6E0ABE1FD0045084
:10113C00085E003600340836045008260036060EC9
:10114C000C6E00340836045000B0085E00A008266F
:10115C0000360C2EF6D700A008260BB015D00DAE1D
:10116C00000C001E002A081E082A000C04AE09D030
:10117C0000BE04D00050086E006AF1D7006A002A45
:10118C00000C001E0B2AD3D7082A0450085CD8A4E4
:0E119C00E6D7086A002A00AEE2D7FF0C120068
:1011AA000450000A12E10550000A0FE10650000A35
:1011BA000CE10750000A09E1FF0E006EFF0E016EF6
:1011CA007F0E026EFF0E036EA8D0086A096A0750E6
:1011DA00D8B480EF09F00350D8B485EF09F0025073
:1011EA0006180A6E028E068E0E6A02C008F001C048
:1011FA000CF000C00DF004500D5E0550D8A0053C5F
:10120A000C5E0650D8A0063C085E086A0C6A0D6A95
:10121A00D8A017EF09F0D890023201320032083212
:10122A00010E0E6E0750035ED8A024EF09F07E0E61
:10123A000E240326D8B08AEF09F02AEF09F07E0EB1
:10124A000E240326D8A08FEF09F0180E0B6E0D3668
:10125A000C3608360036013602360E360450005E69
:10126A000550D8A0053C015E0650D8A0063C025E97
:10127A0006340E120EA045EF09F00D8050EF09F06A
:10128A00045000260550D8B0053C01260650D8B0B7
:10129A00062802260D900B2E2CEF09F076EF09F0A6
:1012AA00D8900036013602360E360450005E0550DC
:1012BA00D8A0053C015E0650D8A0063C025E063462
:1012CA000E10010B0D26D8B00C2AD8B4082AD8A4BF
:1012DA0076EF09F008320C320D32032AD8B48AEFBD
:1012EA0009F00AAE089E0850026E0C50016E0D50AD
:1012FA00006E92EF09F0010E9EEC02F092EF09F0F7
:10130A00020E12EC01F092EF09F0040E2CEC01F03F
:0C131A0092EF09F0080E3CEC01F012000C
:10132600025006180E6E086A096A0B6A03500764B3
:1013360086EF0AF006500A6E068E028E03500B6E7A
:101346000750036E000E0B64D6EF09F00B50075ED4
:10135600D8B477EF0AF0070E076445EF0AF0075E88
:1013660000C008F001C000F002C001F0026A074E9A
:1013760077EF0AF007641AEF0AF0075E00C008F07C
:1013860001C000F0016A074E77EF0AF00764F8EF34
:1013960009F0075E00C008F0006A074E77EF0AF012
:1013A6000764DFEF09F00AC002F005C001F004C0CF
:1013B60000F0086AA3EF0BF0030E0764EAEF09F0EA
:1013C600075E08380F0B086E074E77EF0AF0D890C5
:1013D6000832074E77EF0AF0D8900832074E77EFBB
:1013E6000AF0D890083277EF0AF0030E076409EF87
:1013F6000AF0075E08380F0B086E0038F00B082657
:1014060000380F0B006E074E77EF0AF0D8900032C7
:101416000832074E77EF0AF0D89000320832074EAE
:1014260077EF0AF0D8900032083277EF0AF0030E11
:10143600076431EF0AF0075E08380F0B086E0038B4
:10144600F00B082600380F0B006E0138F00B002653
:1014560001380F0B016E074E77EF0AF0D890013274
:1014660000320832074E77EF0AF0D8900132003288
:101476000832074E77EF0AF0D89001320032083270
:1014860077EF0AF0030E076462EF0AF0075E08388A
:101496000F0B086E0038F00B082600380F0B006E95
:1014A6000138F00B002601380F0B016E0238F00BE5
:1014B600012602380F0B026E074E77EF0AF0D8901E
:1014C6000232013200320832074E77EF0AF0D89026
:1014D6000232013200320832074E77EF0AF0D89016
:1014E6000232013200320832096A000E0EAE6BEF8C
:1014F6000BF0081E001E011E021E082A00220122F1
:1015060002226BEF0BF00750D8A48CEF0AF0A3EF82
:101516000BF0096A02C00AF0028E068E0750035CC1
:10152600076ED8B45EEF0BF0070E07642CEF0BF0D6
:10153600075E0450096E0550046E0650056E066A75
:10154600074E5EEF0BF0070E076401EF0BF0075E28
:101556000450096E0550046E056A074E5EEF0BF0E7
:10156600070E0764DFEF0AF0075E0450096E046A8F
:10157600074E5EEF0BF0070E0764C6EF0AF00AC0CF
:1015860002F0A3EF0BF0030E0764D1EF0AF0075E3B
:1015960009380F0B096E074E5EEF0BF0D890093233
:1015A600074E5EEF0BF0D8900932074E5EEF0BF058
:1015B600D89009325EEF0BF0030E0764F0EF0AF0E5
:1015C600075E09380F0B096E0438F00B092604383C
:1015D6000F0B046E074E5EEF0BF0D8900432093203
:1015E600074E5EEF0BF0D89004320932074E5EEFDD
:1015F6000BF0D890043209325EEF0BF0030E07644D
:1016060018EF0BF0075E09380F0B096E0438F00B64
:10161600092604380F0B046E0538F00B042605382E
:101626000F0B056E074E5EEF0BF0D89005320432B5
:101636000932074E5EEF0BF0D890053204320932BC
:10164600074E5EEF0BF0D8900532043209325EEF9A
:101656000BF0030E076449EF0BF0075E09380F0B1A
:10166600096E0438F00B092604380F0B046E053892
:10167600F00B042605380F0B056E0638F00B052611
:1016860006380F0B066E074E5EEF0BF0D89006324B
:10169600053204320932074E5EEF0BF0D89006325F
:1016A600053204320932074E5EEF0BF0D89006324F
:1016B600053204320932086A000E0EAE6BEF0BF0EB
:1016C600091E041E051E061E092A042205220622DC
:1016D6000950082604500022055001220650022215
:1016E6000EBE82EF0BF0D8A091EF0BF00232013262
:1016F60000320832033E91EF0BF09DEF0BF0D8B0AD
:1017060097EF0BF0000E081E001E011E021E082A8F
:101716000022012202220A7E97EF0BF0010E0C6EC8
:1017260081EC01F0A5EF0BF0020E0C6E81EC01F0DE
:10173600A5EF0BF0040E0C6E2CEC01F0A5EF0BF0F0
:06174600000E0C6E120003
:10174C00086A096A000E076203642BEF0CF0025062
:10175C0006180A6E075003267E0ED8A0BCEF0BF0BD
:10176C00035ED8B030EF0CF0C0EF0BF0035ED8A0E6
:10177C0035EF0CF0028E068E02C00EF001C00BF09D
:10178C0000C00DF000500402F4CF0CF00150050223
:10179C00F4CF00F0F3CF08F00402F3500C26F45011
:1017AC000822000E00220D500502F3500C26F450B6
:1017BC000822000E002202500402F3500826F450B6
:1017CC00002202500502016A000E0122F35000268D
:1017DC00F45001220D500602F3500826F45000225A
:1017EC00026A000E012202220B500602F350002660
:1017FC00F4500122000E02220E500602F350012674
:10180C00F450022202BE13EF0CF0083600360136FB
:10181C0002360306D8B435EF0CF026EF0CF0D88066
:10182C00800E08640030000E002201220222D8A093
:10183C0026EF0CF0023201320032034A30EF0CF08A
:10184C000AAE029E000E38EF0CF0010E12EC01F005
:10185C0038EF0CF0020E2CEC01F038EF0CF0040E0B
:06186C003CEC01F012004B
:101872000050086E0150006E016A026A036A0B6A28
:101882000C6A960E036E0A6A00C001F008C000F0EE
:0A189200086A026AF4EC02F012008A
:10189C00EDC0E1FFEEC0E2FFE66AEBC000F0ECC089
:1018AC0001F019EC01F0070E0101096F010E0A6F2E
:1018BC00020E0B6F000E0C6FCFEC02F0EDC0E1FFCF
:1018CC00EEC0E2FF010EE66EEBC000F0ECC001F0E2
:1018DC0019EC01F01F0E01010715056F066B000EC8
:1018EC000617000E066F05C101F0006A00C005F175
:1018FC0001C006F108510010036E01C004F0000E87
:10190C00041203C005F104C006F103C000F004C0CA
:10191C0001F001320032019E00C005F101C006F158
:02192C001200A7
:10192E009FC0E1FFA0C0E2FF05C1E9FF06C1EAFFCB
:10193E00EECFE6FF9DC000F09EC001F019EC01F065
:04194E00006A120019
:10195200086A096A100E0C6E013408360936045002
:10196200085E0550D8A0053C095ED8B007D00450E7
:1019720008260550D8B0053C0926D8900036013615
:061982000C2EEAD7120052
:1019880018D0F8C005F1F9C006F15BEC06F01CD0E0
:10199800F8C005F1F9C006F1D8EC05F015D0F8C08B
:1019A80005F1F9C006F151EC05F00ED0010E006EFC
:1019B8000BD00001F751000AE4E0F751010AE8E012
:0A19C800F751020AECE0F2D712001A
:1019D2000001FB6BFC6BFD6B0A0EFD5D08E25DDF37
:1019E20000500001FB270150FC23FD2BF5D70A0E06
:1019F200046E000E056EFBC000F0FCC001F0A8DF13
:101A020000C0FBF001C0FCF00150040802E10050EC
:101A12004C082FE2100EFC5D02E1000EFB5D29E294
:101A2200FBC000F0FCC001F023DF00C0F7F001C0F2
:101A3200F8F002C0F9F003C0FAF0000E046E400E96
:101A4200056E4E0E066E8A0E076E7FDE000E046E67
:101A5200000E056E000E066E8B0E076ED5EC08F0BA
:101A620000C0F7F001C0F8F002C0F9F003C0FAF0CC
:101A720009D0000E0001F76F000EF86F800EF96FAB
:101A82007F0EFA6FF7C000F0F8C001F0F9C002F063
:061A9200FAC003F012008F
:101A98001ED0F8C005F1F9C006F1FAC007F1DEEC76
:101AA80006F020D0F8C005F1F9C006F1FAC007F138
:101AB800C5EC07F017D0F8C005F1F9C006F1FAC077
:101AC80007F192EC07F00ED0010E006E0BD000016A
:101AD800F751000ADEE0F751010AE4E0F751020A83
:061AE800EAE0F2D7120053
:101AEE002FD0F8C005F1F9C006F1FAC007F1FBC01E
:101AFE0008F110EC07F032D0F8C005F1F9C006F18C
:101B0E00FAC007F1FBC008F15CEC03F027D0F8C077
:101B1E0005F1F9C006F1FAC007F1FBC008F17DEC42
:101B2E0004F01CD0F8C005F1F9C006F1FAC007F1B7
:101B3E00FBC008F101EC04F011D0010E006E0ED0C6
:101B4E000001F751000ACDE0F751010AD5E0F75137
:0E1B5E00020ADDE0F751100AE5E0EFD71200B1
:101B6C00520E0B6E2B0E0C6E000E0D6E0D2EFED744
:0C1B7C000C2EFCD70B2EFAD70000120034
:101B8800FAC005F1FBC006F1FCC007F1D8EC03F080
:101B9800F7C005F1F8C006F1F9C007F110EC05F03F
:101BA800EDC0E1FFEEC0E2FFE66AEBC000F0ECC07A
:101BB80001F019EC01F0E9C0E1FFEAC0E2FFE66AD2
:0E1BC800E7C000F0E8C001F019EC01F01200D7
:101BD600F7C0FAF0F8C0FBF00D0E0001FC6F0A0E1C
:101BE600FD6F35D0FAC005F1FBC006F19DDE3AD097
:101BF600FAC0E9FFFBC0EAFFEE5209E0FAC005F1C0
:101C0600FBC006F191DE0001FA4BFB2BF1D72AD07F
:101C1600FAC0E9FFFBC0EAFFEE5209E0FAC005F19F
:101C2600FBC006F181DE0001FA4BFB2BF1D7FC0E5F
:101C36000101056F000E066F77DEFD0E0101056FCF
:101C4600000E066F71DE0ED0060E006E0CD000017F
:101C5600F951000AC7E0F951010ACAE0F951020A2E
:081C6600D7E0F2D7006A12007A
:101C6E00E9C0E1FFEAC0E2FF010EE66EE7C000F058
:0A1C7E00E8C001F019EC01F01200BB
:101C88000101036B046BF7C0FFF0F8C000F1F9C065
:101C980001F1FAC002F10251FF0A09E10151FF0AFC
:101CA80006E10051FF0A03E10001FF51FF0A0EE1BE
:101CB800FBC005F1FCC006F17A0E0101076F000EAA
:101CC800086FF8EC07F0030E006E14D2010E000145
:101CD800FD6F010101AF0FD0800E0119006E00C029
:101CE80001F10001FD2BFBC0E1FFFCC0E2FF2D0E5E
:101CF800E66EFB4BFC2B000E006E0101021909E198
:101D08000050011906E10050001903E10001FF51DC
:101D1800000A0DE1FBC005F1FCC006F1780E0101D7
:101D2800076F000E086FF8EC07F0006AE3D10101B5
:101D38000251FF0A09E10151000A06E10051000AB7
:101D480003E10001FF51000A0EE1FBC005F1FCC0F0
:101D580006F17E0E0101076F000E086FF8EC07F020
:101D6800FDC000F0C7D1000E046E000E056E000E17
:101D7800066E7F0E076EFFC000F000C101F001C1C2
:101D880002F002C103F01FEC08F0010ED8B0000EFB
:101D9800006E00521CE00101FFC000F000C101F01C
:101DA80001C102F002C103F0000E046E000E056EC0
:101DB800200E066E820E076EC5DC00C0FFF001C063
:101DC80000F102C001F103C002F10407CCD7000EF4
:101DD800046E000E056E200E066E820E076EFFC0A2
:101DE80000F000C101F001C102F002C103F01FECD4
:101DF80008F0000ED8B0010E006E00521CE0010180
:101E0800FFC000F000C101F001C102F002C103F0FF
:101E1800CD0E046ECC0E056E4C0E066E7B0E076E54
:101E280091DC00C0FFF001C000F102C001F103C065
:101E380002F1042BCCD7FF0E0001FF15086EFF0E30
:101E480001010015096E7F0E01150A6E000E0215BC
:101E58000B6E08C004F009C005F00AC006F00BC0FC
:101E680007F004360490053606360736000E0001E2
:101E7800FF15006E000E01010015016E000E011520
:101E8800026EFF0E0215036E00C0FFF001C000F1E4
:101E980002C001F103C002F104500001FF11006EFD
:101EA800055001010011016E06500111026E075024
:101EB8000211036E00C0FFF001C000F102C001F181
:101EC80003C002F17F0E025D006E00C0FEF0010E3D
:101ED800026F00C004F0FFC000F000C101F001C1B2
:101EE80002F002C103F0045007E00036009001360A
:101EF80002360336FF0FF8D700C0FFF001C000F12B
:101F080002C001F103C002F1FBC0E1FFFCC0E2FF27
:101F18000251300FE66E0001FB4BFC2B800E0101D5
:101F28000419006E800E010A005C08E3800E060AA0
:101F3800006E800E0419005C01E30CD0FBC0E1FFC9
:101F4800FCC0E2FF2E0EE66E0001FB4BFC2B010EDF
:101F58000101036F060E0001FE6FFE51000A5CE0EE
:101F68000101026BFFC000F000C101F001C102F0E5
:101F780002C103F0003600900136023603360036FF
:101F880000900136023603360001FF510026010198
:101F980000510122015102220251032200C0FFF028
:101FA80001C000F102C001F103C002F1FFC000F05E
:101FB80000C101F001C102F002C103F00036009037
:101FC80001360236033600C0FFF001C000F102C03E
:101FD80001F103C002F1FBC0E1FFFCC0E2FF0251C6
:101FE800300FE66E0001FB4BFC2B01010351000A88
:101FF80010E104070451000A0CE1FBC0E1FFFCC03A
:10200800E2FF2E0EE66E0001FB4BFC2B010E0101D8
:10201800036F0001FE07A1D7FF0EFB25E96EFF0E37
:10202800FC21EA6EEE50300A05E1010EFB5F000E5E
:10203800FC5BF2D7FF0EFB25E96EFF0EFC21EA6E72
:10204800EE502E0A04E1010EFB5F000EFC5B01015D
:102058000451000A49E0FBC0E1FFFCC0E2FF650E45
:10206800E66E0001FB4BFC2B800E01010419006E8B
:10207800800E000A005C0DE2FBC0E1FFFCC0E2FF3D
:102088002D0EE66E0001FB4BFC2B010104510008EC
:10209800046F04C1FEF0800E090A006E800E041958
:1020A800005C10E20A0E046EFEC000F086EC08F038
:1020B800FBC0E1FFFCC0E2FF0050300FE66E0001FC
:1020C800FB4BFC2B00010A0E046EFEC000F086ECF0
:1020D80008F008C000F0FBC0E1FFFCC0E2FF0050C0
:1020E800300FE66EFB4BFC2BFBC0E1FFFCC0E2FFB0
:0620F800E66A006A120016
:0820FE00067E93EC09F01200CC
:10210600090E0B6E1E0E0C6EE40E0D6E0D2EFED716
:0C2116000C2EFCD70B2EFAD70000120094
:102122000001F76BF86B010EF96F2DDC0001F76B04
:10213200020EF86FF96B27DC0001F76B010EF86FE6
:10214200F96B21DC0001F76BE60EF86F230EF96FD5
:10215200000EFA6FA0DC010E0001F76F800EF86F1F
:10216200250EF96F000EFA6FFB6FC0DCCBDF120099
:102172000900F5CFE6FF0006FBE10106F9E11200D6
:1021820027DC00C091F001C092F002C093F003C0BE
:1021920094F074C004F075C005F076C006F077C004
:1021A20007F0ACDF00C004F001C005F002C006F089
:1021B20003C007F089C000F08AC001F08BC002F0B2
:1021C2008CC003F01FEC08F0010ED8B0000E006EB8
:1021D20000522AE191C004F092C005F093C006F0CB
:1021E20094C007F074C000F075C001F076C002F030
:1021F20077C003F083DF00C004F001C005F002C025
:1022020006F003C007F089C000F08AC001F08BC05D
:1022120002F08CC003F01FEC08F0010ED8B0000EE3
:10222200006E005201E12FD0820E0001F76F000E06
:10223200F86F010EF96FCEDC91C0F7F092C0F8F0A2
:1022420093C0F9F094C0FAF0A10E0001FB6F000EEA
:10225200FC6F19DDA10E0001F76F000EF86F010E81
:10226200F96FB8DC8D0E0001F76F000EF86F020EE9
:10227200F96FB0DC91C074F092C075F093C076F043
:0822820094C077F072DC120039
:10228A00860E0001F76F230EF86F000EF96FF60E37
:10229A00FA6F230EFB6F000EFC6F71DCE3DC2EDF9E
:1022AA00610E0001F76F000EF86F020EF96F8EDCF7
:1022BA004E0E0001F76F000EF86F020EF96F86DC02
:1022CA00280E0001F76F000EF86F020EF96F7EDC20
:1022DA00150E0001F76F000EF86F020EF96F76DC2B
:1022EA003B0E0001F76F000EF86F020EF96F6EDCFD
:0222FA001200D0
:0E22FC00FFEC11F010DFC3DF3EDFFED7FFD78F
:1023FE0010EE15F07C0E006E010E016E0A0EF66EDA
:0E240E00230EF76E000EF86EB9EC10F01200FF
:10230A0020202020556C74726176696F6C65742088
:03231A0020200080
:10231D002D2D2D2D2D2D2D2D2D2D2D2D2D2D2D2DE0
:03232D002D2D0053
:102330002D2D2D2D2D2D2D2D2D2D2D2D2D2D2D2DCD
:032340002D2D0040
:102343002020202020555620436C69636B202020D9
:0323530020200047
:102356002D2D2D2D2D2D2D2D2D2D2D2D2D2D2D2DA7
:032366002D2D001A
:042369000000007FF1
:02236D0030003E
:04236F004E614E006D
:04237300494E460089
:07237700205556203A20001A
:04237E0000002083B8
:04238200206D560074
:10238600FC000F0118010F0150010F016C010F0134
:10239600EC010F01DE010F0108020F01FA010F0126
:1023A600B4010F01A6010F01D0010F01C2010F01F7
:1023B600FFFFFFFFFFFFFFFFFFFFFFFFFFFFFFFF27
:1023C600FFFFFFFFFFFFFFFFFFFFFFFFFFFFFFFF17
:1023D600FFFFFFFFFFFFFFFFFFFFFFFFFFFFFFFF07
:1023E60002000000000000000000000001000000E4
:0823F60034010F013800100151
:020000040030CA
:0E00000015137F7CF98B91FFFFC0FFE0FF40DE
:00000001FF
